{
  "_format": "hh-sol-artifact-1",
  "contractName": "DocumentRegistry",
  "sourceName": "contracts/core/DocumentRegistry.sol",
  "abi": [
    {
      "inputs": [],
      "stateMutability": "nonpayable",
      "type": "constructor"
    },
    {
      "anonymous": false,
      "inputs": [
        {
          "indexed": false,
          "internalType": "address",
          "name": "previousAdmin",
          "type": "address"
        },
        {
          "indexed": false,
          "internalType": "address",
          "name": "newAdmin",
          "type": "address"
        }
      ],
      "name": "AdminChanged",
      "type": "event"
    },
    {
      "anonymous": false,
      "inputs": [
        {
          "indexed": true,
          "internalType": "address",
          "name": "beacon",
          "type": "address"
        }
      ],
      "name": "BeaconUpgraded",
      "type": "event"
    },
    {
      "anonymous": false,
      "inputs": [
        {
          "indexed": true,
          "internalType": "bytes32",
          "name": "documentId",
          "type": "bytes32"
        },
        {
          "indexed": false,
          "internalType": "bytes32",
          "name": "contentHash",
          "type": "bytes32"
        },
        {
          "indexed": false,
          "internalType": "bytes32",
          "name": "documentType",
          "type": "bytes32"
        },
        {
          "indexed": true,
          "internalType": "address",
          "name": "owner",
          "type": "address"
        },
        {
          "indexed": true,
          "internalType": "bytes32",
          "name": "did",
          "type": "bytes32"
        },
        {
          "indexed": false,
          "internalType": "uint256",
          "name": "createdAt",
          "type": "uint256"
        },
        {
          "indexed": false,
          "internalType": "uint256",
          "name": "expiresAt",
          "type": "uint256"
        }
      ],
      "name": "DocumentRegistered",
      "type": "event"
    },
    {
      "anonymous": false,
      "inputs": [
        {
          "indexed": true,
          "internalType": "bytes32",
          "name": "documentId",
          "type": "bytes32"
        },
        {
          "indexed": true,
          "internalType": "bytes32",
          "name": "signerDid",
          "type": "bytes32"
        },
        {
          "indexed": false,
          "internalType": "bytes32",
          "name": "signatureType",
          "type": "bytes32"
        },
        {
          "indexed": false,
          "internalType": "uint256",
          "name": "timestamp",
          "type": "uint256"
        }
      ],
      "name": "DocumentSigned",
      "type": "event"
    },
    {
      "anonymous": false,
      "inputs": [
        {
          "indexed": true,
          "internalType": "bytes32",
          "name": "documentId",
          "type": "bytes32"
        },
        {
          "indexed": false,
          "internalType": "bytes32",
          "name": "oldStatus",
          "type": "bytes32"
        },
        {
          "indexed": false,
          "internalType": "bytes32",
          "name": "newStatus",
          "type": "bytes32"
        }
      ],
      "name": "DocumentStatusChanged",
      "type": "event"
    },
    {
      "anonymous": false,
      "inputs": [
        {
          "indexed": false,
          "internalType": "uint8",
          "name": "version",
          "type": "uint8"
        }
      ],
      "name": "Initialized",
      "type": "event"
    },
    {
      "anonymous": false,
      "inputs": [
        {
          "indexed": false,
          "internalType": "address",
          "name": "account",
          "type": "address"
        }
      ],
      "name": "Paused",
      "type": "event"
    },
    {
      "anonymous": false,
      "inputs": [
        {
          "indexed": true,
          "internalType": "bytes32",
          "name": "role",
          "type": "bytes32"
        },
        {
          "indexed": true,
          "internalType": "bytes32",
          "name": "previousAdminRole",
          "type": "bytes32"
        },
        {
          "indexed": true,
          "internalType": "bytes32",
          "name": "newAdminRole",
          "type": "bytes32"
        }
      ],
      "name": "RoleAdminChanged",
      "type": "event"
    },
    {
      "anonymous": false,
      "inputs": [
        {
          "indexed": true,
          "internalType": "bytes32",
          "name": "role",
          "type": "bytes32"
        },
        {
          "indexed": true,
          "internalType": "address",
          "name": "account",
          "type": "address"
        },
        {
          "indexed": true,
          "internalType": "address",
          "name": "sender",
          "type": "address"
        }
      ],
      "name": "RoleGranted",
      "type": "event"
    },
    {
      "anonymous": false,
      "inputs": [
        {
          "indexed": true,
          "internalType": "bytes32",
          "name": "role",
          "type": "bytes32"
        },
        {
          "indexed": true,
          "internalType": "address",
          "name": "account",
          "type": "address"
        },
        {
          "indexed": true,
          "internalType": "address",
          "name": "sender",
          "type": "address"
        }
      ],
      "name": "RoleRevoked",
      "type": "event"
    },
    {
      "anonymous": false,
      "inputs": [
        {
          "indexed": false,
          "internalType": "address",
          "name": "account",
          "type": "address"
        }
      ],
      "name": "Unpaused",
      "type": "event"
    },
    {
      "anonymous": false,
      "inputs": [
        {
          "indexed": true,
          "internalType": "address",
          "name": "implementation",
          "type": "address"
        }
      ],
      "name": "Upgraded",
      "type": "event"
    },
    {
      "inputs": [],
      "name": "ACTIVE",
      "outputs": [
        {
          "internalType": "bytes32",
          "name": "",
          "type": "bytes32"
        }
      ],
      "stateMutability": "view",
      "type": "function"
    },
    {
      "inputs": [],
      "name": "ADMIN_ROLE",
      "outputs": [
        {
          "internalType": "bytes32",
          "name": "",
          "type": "bytes32"
        }
      ],
      "stateMutability": "view",
      "type": "function"
    },
    {
      "inputs": [],
      "name": "DEFAULT_ADMIN_ROLE",
      "outputs": [
        {
          "internalType": "bytes32",
          "name": "",
          "type": "bytes32"
        }
      ],
      "stateMutability": "view",
      "type": "function"
    },
    {
      "inputs": [],
      "name": "DOCUMENT_MANAGER_ROLE",
      "outputs": [
        {
          "internalType": "bytes32",
          "name": "",
          "type": "bytes32"
        }
      ],
      "stateMutability": "view",
      "type": "function"
    },
    {
      "inputs": [],
      "name": "EXPIRED",
      "outputs": [
        {
          "internalType": "bytes32",
          "name": "",
          "type": "bytes32"
        }
      ],
      "stateMutability": "view",
      "type": "function"
    },
    {
      "inputs": [],
      "name": "REVOKED",
      "outputs": [
        {
          "internalType": "bytes32",
          "name": "",
          "type": "bytes32"
        }
      ],
      "stateMutability": "view",
      "type": "function"
    },
    {
      "inputs": [],
      "name": "TYPE_FINANCIAL",
      "outputs": [
        {
          "internalType": "bytes32",
          "name": "",
          "type": "bytes32"
        }
      ],
      "stateMutability": "view",
      "type": "function"
    },
    {
      "inputs": [],
      "name": "TYPE_GENERAL",
      "outputs": [
        {
          "internalType": "bytes32",
          "name": "",
          "type": "bytes32"
        }
      ],
      "stateMutability": "view",
      "type": "function"
    },
    {
      "inputs": [],
      "name": "TYPE_IDENTITY",
      "outputs": [
        {
          "internalType": "bytes32",
          "name": "",
          "type": "bytes32"
        }
      ],
      "stateMutability": "view",
      "type": "function"
    },
    {
      "inputs": [],
      "name": "TYPE_LEGAL",
      "outputs": [
        {
          "internalType": "bytes32",
          "name": "",
          "type": "bytes32"
        }
      ],
      "stateMutability": "view",
      "type": "function"
    },
    {
      "inputs": [],
      "name": "didRegistry",
      "outputs": [
        {
          "internalType": "contract IDID",
          "name": "",
          "type": "address"
        }
      ],
      "stateMutability": "view",
      "type": "function"
    },
    {
      "inputs": [
        {
          "internalType": "bytes32",
          "name": "",
          "type": "bytes32"
        }
      ],
      "name": "documents",
      "outputs": [
        {
          "internalType": "bytes32",
          "name": "contentHash",
          "type": "bytes32"
        },
        {
          "internalType": "bytes32",
          "name": "documentType",
          "type": "bytes32"
        },
        {
          "internalType": "address",
          "name": "owner",
          "type": "address"
        },
        {
          "internalType": "bytes32",
          "name": "did",
          "type": "bytes32"
        },
        {
          "internalType": "uint256",
          "name": "createdAt",
          "type": "uint256"
        },
        {
          "internalType": "uint256",
          "name": "expiresAt",
          "type": "uint256"
        },
        {
          "internalType": "bytes32",
          "name": "status",
          "type": "bytes32"
        },
        {
          "internalType": "string",
          "name": "metadata",
          "type": "string"
        },
        {
          "internalType": "uint256",
          "name": "version",
          "type": "uint256"
        }
      ],
      "stateMutability": "view",
      "type": "function"
    },
    {
      "inputs": [
        {
          "internalType": "bytes32",
          "name": "documentId",
          "type": "bytes32"
        }
      ],
      "name": "getRequiredSigners",
      "outputs": [
        {
          "internalType": "bytes32[]",
          "name": "",
          "type": "bytes32[]"
        }
      ],
      "stateMutability": "view",
      "type": "function"
    },
    {
      "inputs": [
        {
          "internalType": "bytes32",
          "name": "role",
          "type": "bytes32"
        }
      ],
      "name": "getRoleAdmin",
      "outputs": [
        {
          "internalType": "bytes32",
          "name": "",
          "type": "bytes32"
        }
      ],
      "stateMutability": "view",
      "type": "function"
    },
    {
      "inputs": [
        {
          "internalType": "bytes32",
          "name": "documentId",
          "type": "bytes32"
        }
      ],
      "name": "getSignatures",
      "outputs": [
        {
          "components": [
            {
              "internalType": "bytes32",
              "name": "signerDid",
              "type": "bytes32"
            },
            {
              "internalType": "uint256",
              "name": "timestamp",
              "type": "uint256"
            },
            {
              "internalType": "bytes32",
              "name": "signatureType",
              "type": "bytes32"
            },
            {
              "internalType": "string",
              "name": "metadata",
              "type": "string"
            }
          ],
          "internalType": "struct IDocument.Signature[]",
          "name": "",
          "type": "tuple[]"
        }
      ],
      "stateMutability": "view",
      "type": "function"
    },
    {
      "inputs": [
        {
          "internalType": "bytes32",
          "name": "role",
          "type": "bytes32"
        },
        {
          "internalType": "address",
          "name": "account",
          "type": "address"
        }
      ],
      "name": "grantRole",
      "outputs": [],
      "stateMutability": "nonpayable",
      "type": "function"
    },
    {
      "inputs": [
        {
          "internalType": "bytes32",
          "name": "documentId",
          "type": "bytes32"
        }
      ],
      "name": "hasAllRequiredSignatures",
      "outputs": [
        {
          "internalType": "bool",
          "name": "",
          "type": "bool"
        }
      ],
      "stateMutability": "view",
      "type": "function"
    },
    {
      "inputs": [
        {
          "internalType": "bytes32",
          "name": "role",
          "type": "bytes32"
        },
        {
          "internalType": "address",
          "name": "account",
          "type": "address"
        }
      ],
      "name": "hasRole",
      "outputs": [
        {
          "internalType": "bool",
          "name": "",
          "type": "bool"
        }
      ],
      "stateMutability": "view",
      "type": "function"
    },
    {
      "inputs": [
        {
          "internalType": "address",
          "name": "_didRegistry",
          "type": "address"
        }
      ],
      "name": "initialize",
      "outputs": [],
      "stateMutability": "nonpayable",
      "type": "function"
    },
    {
      "inputs": [],
      "name": "pause",
      "outputs": [],
      "stateMutability": "nonpayable",
      "type": "function"
    },
    {
      "inputs": [],
      "name": "paused",
      "outputs": [
        {
          "internalType": "bool",
          "name": "",
          "type": "bool"
        }
      ],
      "stateMutability": "view",
      "type": "function"
    },
    {
      "inputs": [],
      "name": "proxiableUUID",
      "outputs": [
        {
          "internalType": "bytes32",
          "name": "",
          "type": "bytes32"
        }
      ],
      "stateMutability": "view",
      "type": "function"
    },
    {
      "inputs": [
        {
          "internalType": "bytes32",
          "name": "contentHash",
          "type": "bytes32"
        },
        {
          "internalType": "bytes32",
          "name": "documentType",
          "type": "bytes32"
        },
        {
          "internalType": "uint256",
          "name": "expiresAt",
          "type": "uint256"
        },
        {
          "internalType": "string",
          "name": "metadata",
          "type": "string"
        },
        {
          "internalType": "bytes32[]",
          "name": "requiredSignerDids",
          "type": "bytes32[]"
        }
      ],
      "name": "registerDocument",
      "outputs": [
        {
          "internalType": "bytes32",
          "name": "",
          "type": "bytes32"
        }
      ],
      "stateMutability": "nonpayable",
      "type": "function"
    },
    {
      "inputs": [
        {
          "internalType": "bytes32",
          "name": "role",
          "type": "bytes32"
        },
        {
          "internalType": "address",
          "name": "account",
          "type": "address"
        }
      ],
      "name": "renounceRole",
      "outputs": [],
      "stateMutability": "nonpayable",
      "type": "function"
    },
    {
      "inputs": [
        {
          "internalType": "bytes32",
          "name": "",
          "type": "bytes32"
        },
        {
          "internalType": "uint256",
          "name": "",
          "type": "uint256"
        }
      ],
      "name": "requiredSigners",
      "outputs": [
        {
          "internalType": "bytes32",
          "name": "",
          "type": "bytes32"
        }
      ],
      "stateMutability": "view",
      "type": "function"
    },
    {
      "inputs": [
        {
          "internalType": "bytes32",
          "name": "documentId",
          "type": "bytes32"
        }
      ],
      "name": "revokeDocument",
      "outputs": [],
      "stateMutability": "nonpayable",
      "type": "function"
    },
    {
      "inputs": [
        {
          "internalType": "bytes32",
          "name": "role",
          "type": "bytes32"
        },
        {
          "internalType": "address",
          "name": "account",
          "type": "address"
        }
      ],
      "name": "revokeRole",
      "outputs": [],
      "stateMutability": "nonpayable",
      "type": "function"
    },
    {
      "inputs": [
        {
          "internalType": "bytes32",
          "name": "documentId",
          "type": "bytes32"
        },
        {
          "internalType": "bytes32",
          "name": "signatureType",
          "type": "bytes32"
        },
        {
          "internalType": "string",
          "name": "metadata",
          "type": "string"
        }
      ],
      "name": "signDocument",
      "outputs": [],
      "stateMutability": "nonpayable",
      "type": "function"
    },
    {
      "inputs": [
        {
          "internalType": "bytes32",
          "name": "",
          "type": "bytes32"
        },
        {
          "internalType": "uint256",
          "name": "",
          "type": "uint256"
        }
      ],
      "name": "signatures",
      "outputs": [
        {
          "internalType": "bytes32",
          "name": "signerDid",
          "type": "bytes32"
        },
        {
          "internalType": "uint256",
          "name": "timestamp",
          "type": "uint256"
        },
        {
          "internalType": "bytes32",
          "name": "signatureType",
          "type": "bytes32"
        },
        {
          "internalType": "string",
          "name": "metadata",
          "type": "string"
        }
      ],
      "stateMutability": "view",
      "type": "function"
    },
    {
      "inputs": [
        {
          "internalType": "bytes4",
          "name": "interfaceId",
          "type": "bytes4"
        }
      ],
      "name": "supportsInterface",
      "outputs": [
        {
          "internalType": "bool",
          "name": "",
          "type": "bool"
        }
      ],
      "stateMutability": "view",
      "type": "function"
    },
    {
      "inputs": [],
      "name": "unpause",
      "outputs": [],
      "stateMutability": "nonpayable",
      "type": "function"
    },
    {
      "inputs": [
        {
          "internalType": "bytes32",
          "name": "documentId",
          "type": "bytes32"
        },
        {
          "internalType": "string",
          "name": "metadata",
          "type": "string"
        }
      ],
      "name": "updateMetadata",
      "outputs": [],
      "stateMutability": "nonpayable",
      "type": "function"
    },
    {
      "inputs": [
        {
          "internalType": "address",
          "name": "newImplementation",
          "type": "address"
        }
      ],
      "name": "upgradeTo",
      "outputs": [],
      "stateMutability": "nonpayable",
      "type": "function"
    },
    {
      "inputs": [
        {
          "internalType": "address",
          "name": "newImplementation",
          "type": "address"
        },
        {
          "internalType": "bytes",
          "name": "data",
          "type": "bytes"
        }
      ],
      "name": "upgradeToAndCall",
      "outputs": [],
      "stateMutability": "payable",
      "type": "function"
    }
  ],
  "bytecode": "0x60a060405230608052348015601357600080fd5b5060805161314b61004b60003960008181610a0b01528181610a4b01528181610b9f01528181610bdf0152610c6e015261314b6000f3fe6080604052600436106101f95760003560e01c806374400fd11161010d578063a217fddf116100a0578063c90bd0471161006f578063c90bd04714610650578063cffafec214610672578063d547741f146106a6578063e6c292e8146106c6578063f20b2cc9146106fa57600080fd5b8063a217fddf146105c7578063a375765e146105dc578063a45bc7cb146105fc578063c4d66de81461063057600080fd5b80638456cb59116100dc5780638456cb591461054557806391d148541461055a578063952be80d1461057a5780639bc510681461059a57600080fd5b806374400fd11461049f57806375b238fc146104cf5780637cd1bf07146104f15780637ea9d0be1461052557600080fd5b806337a37266116101905780634f1ef2861161015f5780634f1ef286146103f257806352d1902d14610405578063577f9fb11461041a5780635c975abb1461045357806364d752a61461046b57600080fd5b806337a372661461035c5780633f4ba83a1461037c578063414ac85b146103915780634e01b34a146103c557600080fd5b80632f2ff15d116101cc5780632f2ff15d146102c657806330645787146102e857806336568abe1461031c5780633659cfe61461033c57600080fd5b806301ffc9a7146101fe5780632187c00f14610233578063248a9ca3146102615780632b2805db14610291575b600080fd5b34801561020a57600080fd5b5061021e6102193660046125aa565b61071a565b60405190151581526020015b60405180910390f35b34801561023f57600080fd5b5061025361024e366004612677565b610751565b60405190815260200161022a565b34801561026d57600080fd5b5061025361027c366004612787565b60009081526065602052604090206001015490565b34801561029d57600080fd5b506102b16102ac366004612787565b610879565b60405161022a999897969594939291906127f0565b3480156102d257600080fd5b506102e66102e136600461286a565b610959565b005b3480156102f457600080fd5b506102537f4714c98f64aa1dda8d8aaec6cbc38c2e3cbb0aeca4ed11e04b3fd94f2ee2cf4b81565b34801561032857600080fd5b506102e661033736600461286a565b610983565b34801561034857600080fd5b506102e6610357366004612896565b610a01565b34801561036857600080fd5b506102536103773660046128b1565b610ae0565b34801561038857600080fd5b506102e6610b12565b34801561039d57600080fd5b506102537fbd725cfb5ba01ea5dc5a7159cf41eaa54c28dc001805ce2361d3c894e7c2f72a81565b3480156103d157600080fd5b506103e56103e0366004612787565b610b32565b60405161022a91906128d3565b6102e6610400366004612916565b610b95565b34801561041157600080fd5b50610253610c61565b34801561042657600080fd5b5061015f5461043b906001600160a01b031681565b6040516001600160a01b03909116815260200161022a565b34801561045f57600080fd5b5060975460ff1661021e565b34801561047757600080fd5b506102537f85f6017c7f3635f3e21f932bfcec61f314ced22845f0e0e3813bdc644b86d41581565b3480156104ab57600080fd5b506104bf6104ba3660046128b1565b610d14565b60405161022a9493929190612978565b3480156104db57600080fd5b506102536000805160206130f683398151915281565b3480156104fd57600080fd5b506102537f377799b22fba826cf24c3f07e6731c67676765addcee33415a2c80d453d4ed6e81565b34801561053157600080fd5b5061021e610540366004612787565b610dea565b34801561055157600080fd5b506102e6610ff9565b34801561056657600080fd5b5061021e61057536600461286a565b611019565b34801561058657600080fd5b506102e6610595366004612787565b611044565b3480156105a657600080fd5b506105ba6105b5366004612787565b6111d3565b60405161022a919061299d565b3480156105d357600080fd5b50610253600081565b3480156105e857600080fd5b506102e66105f7366004612a76565b6112f6565b34801561060857600080fd5b506102537fe79fd29f377f3f40effc8a35a7f25af3e55125216056ee9986f22266e76f93b581565b34801561063c57600080fd5b506102e661064b366004612896565b611433565b34801561065c57600080fd5b506102536000805160206130af83398151915281565b34801561067e57600080fd5b506102537f5520d115ceffb88f02315d646cd7618d18024f657afe794865243ed5b75fb04f81565b3480156106b257600080fd5b506102e66106c136600461286a565b6115c5565b3480156106d257600080fd5b506102537ff762965bdb8dff81b8c1397e6074e78216cd3eefe37835af6bd83d5348ea57f381565b34801561070657600080fd5b506102e6610715366004612ac2565b6115ea565b60006001600160e01b03198216637965db0b60e01b148061074b57506301ffc9a760e01b6001600160e01b03198316145b92915050565b600061075b6119a0565b856107ad5760405162461bcd60e51b815260206004820152601c60248201527f436f6e74656e7420686173682063616e6e6f7420626520656d7074790000000060448201526064015b60405180910390fd5b846107fa5760405162461bcd60e51b815260206004820152601d60248201527f446f63756d656e7420747970652063616e6e6f7420626520656d70747900000060448201526064016107a4565b600061080987878787876119e8565b600081815261016060209081526040918290206003015482518b81529182018a905242828401819052606083018a905292519394509192339185917f5bbdca07a4cdef5d0de70ea623a960da683e65309ca16825782144935e88e8909181900360800190a4509695505050505050565b6101606020526000908152604090208054600182015460028301546003840154600485015460058601546006870154600788018054979896976001600160a01b03909616969495939492939192916108d090612b15565b80601f01602080910402602001604051908101604052809291908181526020018280546108fc90612b15565b80156109495780601f1061091e57610100808354040283529160200191610949565b820191906000526020600020905b81548152906001019060200180831161092c57829003601f168201915b5050505050908060080154905089565b60008281526065602052604090206001015461097481611cc6565b61097e8383611cd0565b505050565b6001600160a01b03811633146109f35760405162461bcd60e51b815260206004820152602f60248201527f416363657373436f6e74726f6c3a2063616e206f6e6c792072656e6f756e636560448201526e103937b632b9903337b91039b2b63360891b60648201526084016107a4565b6109fd8282611d56565b5050565b6001600160a01b037f0000000000000000000000000000000000000000000000000000000000000000163003610a495760405162461bcd60e51b81526004016107a490612b4f565b7f00000000000000000000000000000000000000000000000000000000000000006001600160a01b0316610a9260008051602061308f833981519152546001600160a01b031690565b6001600160a01b031614610ab85760405162461bcd60e51b81526004016107a490612b9b565b610ac181611dbd565b60408051600080825260208201909252610add91839190611dc8565b50565b6101626020528160005260406000208181548110610afd57600080fd5b90600052602060002001600091509150505481565b6000805160206130f6833981519152610b2a81611cc6565b610add611f33565b60008181526101626020908152604091829020805483518184028101840190945280845260609392830182828015610b8957602002820191906000526020600020905b815481526020019060010190808311610b75575b50505050509050919050565b6001600160a01b037f0000000000000000000000000000000000000000000000000000000000000000163003610bdd5760405162461bcd60e51b81526004016107a490612b4f565b7f00000000000000000000000000000000000000000000000000000000000000006001600160a01b0316610c2660008051602061308f833981519152546001600160a01b031690565b6001600160a01b031614610c4c5760405162461bcd60e51b81526004016107a490612b9b565b610c5582611dbd565b6109fd82826001611dc8565b6000306001600160a01b037f00000000000000000000000000000000000000000000000000000000000000001614610d015760405162461bcd60e51b815260206004820152603860248201527f555550535570677261646561626c653a206d757374206e6f742062652063616c60448201527f6c6564207468726f7567682064656c656761746563616c6c000000000000000060648201526084016107a4565b5060008051602061308f83398151915290565b6101616020528160005260406000208181548110610d3157600080fd5b906000526020600020906004020160009150915050806000015490806001015490806002015490806003018054610d6790612b15565b80601f0160208091040260200160405190810160405280929190818152602001828054610d9390612b15565b8015610de05780601f10610db557610100808354040283529160200191610de0565b820191906000526020600020905b815481529060010190602001808311610dc357829003601f168201915b5050505050905084565b60008181526101626020908152604080832080548251818502810185019093528083528493830182828015610e3e57602002820191906000526020600020905b815481526020019060010190808311610e2a575b505050505090508051600003610e575750600192915050565b60008381526101616020908152604080832080548251818502810185019093528083529192909190849084015b82821015610f665783829060005260206000209060040201604051806080016040529081600082015481526020016001820154815260200160028201548152602001600382018054610ed590612b15565b80601f0160208091040260200160405190810160405280929190818152602001828054610f0190612b15565b8015610f4e5780601f10610f2357610100808354040283529160200191610f4e565b820191906000526020600020905b815481529060010190602001808311610f3157829003601f168201915b50505050508152505081526020019060010190610e84565b50505050905060005b8251811015610fee576000805b8351811015610fd357838181518110610f9757610f97612be7565b602002602001015160000151858481518110610fb557610fb5612be7565b602002602001015103610fcb5760019150610fd3565b600101610f7c565b5080610fe55750600095945050505050565b50600101610f6f565b506001949350505050565b6000805160206130f683398151915261101181611cc6565b610add611f85565b60009182526065602090815260408084206001600160a01b0393909316845291905290205460ff1690565b806110615760405162461bcd60e51b81526004016107a490612bfd565b6000818152610160602052604090205461108d5760405162461bcd60e51b81526004016107a490612c42565b600081815261016060205260409020600201546001600160a01b03163314806110c957506110c96000805160206130f683398151915233611019565b6111155760405162461bcd60e51b815260206004820181905260248201527f446f63756d656e7452656769737472793a204e6f7420617574686f72697a656460448201526064016107a4565b600081815261016060205260409020600601546000805160206130af833981519152146111545760405162461bcd60e51b81526004016107a490612c8b565b600081815261016060205260409081902060060180547ff762965bdb8dff81b8c1397e6074e78216cd3eefe37835af6bd83d5348ea57f391829055915183917fabab0a2de8b3200eb25835c751c4837cc4466f6b91d74039ba2e59adf4052714916111c791858252602082015260400190565b60405180910390a25050565b60606101616000838152602001908152602001600020805480602002602001604051908101604052809291908181526020016000905b828210156112eb578382906000526020600020906004020160405180608001604052908160008201548152602001600182015481526020016002820154815260200160038201805461125a90612b15565b80601f016020809104026020016040519081016040528092919081815260200182805461128690612b15565b80156112d35780601f106112a8576101008083540402835291602001916112d3565b820191906000526020600020905b8154815290600101906020018083116112b657829003601f168201915b50505050508152505081526020019060010190611209565b505050509050919050565b826113135760405162461bcd60e51b81526004016107a490612bfd565b6000838152610160602052604090205461133f5760405162461bcd60e51b81526004016107a490612c42565b600083815261016060205260409020600201546001600160a01b031633146113a95760405162461bcd60e51b815260206004820181905260248201527f446f63756d656e7452656769737472793a204e6f7420617574686f72697a656460448201526064016107a4565b600083815261016060205260409020600601546000805160206130af833981519152146113e85760405162461bcd60e51b81526004016107a490612c8b565b600083815261016060205260409020600701611405828483612d21565b50600083815261016060205260408120600801805460019290611429908490612df7565b9091555050505050565b600054610100900460ff16158080156114535750600054600160ff909116105b8061146d5750303b15801561146d575060005460ff166001145b6114d05760405162461bcd60e51b815260206004820152602e60248201527f496e697469616c697a61626c653a20636f6e747261637420697320616c72656160448201526d191e481a5b9a5d1a585b1a5e995960921b60648201526084016107a4565b6000805460ff1916600117905580156114f3576000805461ff0019166101001790555b6114fb611fc2565b611503611fe9565b61150b611fc2565b611513612018565b61151e600033611cd0565b6115366000805160206130f683398151915233611cd0565b6115607f5520d115ceffb88f02315d646cd7618d18024f657afe794865243ed5b75fb04f33611cd0565b61015f80546001600160a01b0319166001600160a01b03841617905580156109fd576000805461ff0019169055604051600181527f7f26b83ff96e1f2b6a682f133852f6798a09c465da95921460cefb38474024989060200160405180910390a15050565b6000828152606560205260409020600101546115e081611cc6565b61097e8383611d56565b6115f26119a0565b8361160f5760405162461bcd60e51b81526004016107a490612bfd565b6000848152610160602052604090205461163b5760405162461bcd60e51b81526004016107a490612c42565b600084815261016060205260409020600601546000805160206130af8339815191521461167a5760405162461bcd60e51b81526004016107a490612c8b565b61015f546040516395f9250d60e01b81523360048201526000916001600160a01b0316906395f9250d90602401602060405180830381865afa1580156116c4573d6000803e3d6000fd5b505050506040513d601f19601f820116820180604052508101906116e89190612e0a565b9050806117075760405162461bcd60e51b81526004016107a490612e23565b61015f54604051630f4523d560e31b8152600481018390526000916001600160a01b031690637a291ea890602401606060405180830381865afa158015611752573d6000803e3d6000fd5b505050506040513d601f19601f820116820180604052508101906117769190612e73565b92505050806117975760405162461bcd60e51b81526004016107a490612e23565b60008681526101606020526040902060050154158015906117ca5750600086815261016060205260409020600501544210155b156118a657600086815261016060209081526040918290207fbd725cfb5ba01ea5dc5a7159cf41eaa54c28dc001805ce2361d3c894e7c2f72a600690910181905582516000805160206130af83398151915281529182015287917fabab0a2de8b3200eb25835c751c4837cc4466f6b91d74039ba2e59adf4052714910160405180910390a260405162461bcd60e51b815260206004820152602660248201527f446f63756d656e7452656769737472793a20446f63756d656e742068617320656044820152651e1c1a5c995960d21b60648201526084016107a4565b6101616000878152602001908152602001600020604051806080016040528084815260200142815260200187815260200186868080601f0160208091040260200160405190810160405280939291908181526020018383808284376000920182905250939094525050835460018181018655948252602091829020845160049092020190815590830151938101939093555060408101516002830155606081015190919060038201906119599082612eb2565b50506040805187815242602082015284925088917fff5dc1c6e879260d7a9c3c94742ea5e7b6b1ad530c875f681028feb4267b5509910160405180910390a3505050505050565b60975460ff16156119e65760405162461bcd60e51b815260206004820152601060248201526f14185d5cd8589b194e881c185d5cd95960821b60448201526064016107a4565b565b600080864233604051602001611a2393929190928352602083019190915260601b6bffffffffffffffffffffffff1916604082015260540190565b60408051808303601f1901815290829052805160209091012061015f546395f9250d60e01b83523360048401529092506000916001600160a01b03909116906395f9250d90602401602060405180830381865afa158015611a88573d6000803e3d6000fd5b505050506040513d601f19601f82011682018060405250810190611aac9190612e0a565b905080611afb5760405162461bcd60e51b815260206004820152601d60248201527f4f776e6572206d757374206861766520616e206163746976652044494400000060448201526064016107a4565b61015f54604051630f4523d560e31b8152600481018390526000916001600160a01b031690637a291ea890602401606060405180830381865afa158015611b46573d6000803e3d6000fd5b505050506040513d601f19601f82011682018060405250810190611b6a9190612e73565b9250505080611bbb5760405162461bcd60e51b815260206004820152601d60248201527f4f776e6572206d757374206861766520616e206163746976652044494400000060448201526064016107a4565b60408051610120810182528a815260208082018b81523383850190815260608401878152426080860190815260a086018e81526000805160206130af83398151915260c0880190815260e088018f815260016101008a0181905260008e8152610160909952999097208851815595519886019890985592516002850180546001600160a01b0319166001600160a01b039092169190911790559051600384015551600483015551600582015592516006840155519091906007820190611c819082612eb2565b506101009190910151600890910155845115611cb9576000838152610162602090815260409091208651611cb79288019061254a565b505b5090979650505050505050565b610add8133612047565b611cda8282611019565b6109fd5760008281526065602090815260408083206001600160a01b03851684529091529020805460ff19166001179055611d123390565b6001600160a01b0316816001600160a01b0316837f2f8788117e7eff1d82e926ec794901d17c78024a50270940304540a733656f0d60405160405180910390a45050565b611d608282611019565b156109fd5760008281526065602090815260408083206001600160a01b0385168085529252808320805460ff1916905551339285917ff6391f5c32d9c69d2a47ea670b442974b53935d1edc7fd64eb21e047a839171b9190a45050565b60006109fd81611cc6565b7f4910fdfa16fed3260ed0e7147f7cc6da11a60208b5b9406d12a635614ffd91435460ff1615611dfb5761097e836120a0565b826001600160a01b03166352d1902d6040518163ffffffff1660e01b8152600401602060405180830381865afa925050508015611e55575060408051601f3d908101601f19168201909252611e5291810190612e0a565b60015b611eb85760405162461bcd60e51b815260206004820152602e60248201527f45524331393637557067726164653a206e657720696d706c656d656e7461746960448201526d6f6e206973206e6f74205555505360901b60648201526084016107a4565b60008051602061308f8339815191528114611f275760405162461bcd60e51b815260206004820152602960248201527f45524331393637557067726164653a20756e737570706f727465642070726f786044820152681a58589b195555525160ba1b60648201526084016107a4565b5061097e83838361213c565b611f3b612167565b6097805460ff191690557f5db9ee0a495bf2e6ff9c91a7834c1ba4fdd244a5e8aa4e537bd38aeae4b073aa335b6040516001600160a01b03909116815260200160405180910390a1565b611f8d6119a0565b6097805460ff191660011790557f62e78cea01bee320cd4e420270b5ea74000d11b0c9f74754ebdbfc544b05a258611f683390565b600054610100900460ff166119e65760405162461bcd60e51b81526004016107a490612f71565b600054610100900460ff166120105760405162461bcd60e51b81526004016107a490612f71565b6119e66121b0565b600054610100900460ff1661203f5760405162461bcd60e51b81526004016107a490612f71565b6119e66121e3565b6120518282611019565b6109fd5761205e81612212565b612069836020612224565b60405160200161207a929190612fbc565b60408051601f198184030181529082905262461bcd60e51b82526107a491600401613031565b6001600160a01b0381163b61210d5760405162461bcd60e51b815260206004820152602d60248201527f455243313936373a206e657720696d706c656d656e746174696f6e206973206e60448201526c1bdd08184818dbdb9d1c9858dd609a1b60648201526084016107a4565b60008051602061308f83398151915280546001600160a01b0319166001600160a01b0392909216919091179055565b612145836123c7565b6000825111806121525750805b1561097e576121618383612407565b50505050565b60975460ff166119e65760405162461bcd60e51b815260206004820152601460248201527314185d5cd8589b194e881b9bdd081c185d5cd95960621b60448201526064016107a4565b600054610100900460ff166121d75760405162461bcd60e51b81526004016107a490612f71565b6097805460ff19169055565b600054610100900460ff1661220a5760405162461bcd60e51b81526004016107a490612f71565b600161012d55565b606061074b6001600160a01b03831660145b60606000612233836002613044565b61223e906002612df7565b67ffffffffffffffff811115612256576122566125d4565b6040519080825280601f01601f191660200182016040528015612280576020820181803683370190505b509050600360fc1b8160008151811061229b5761229b612be7565b60200101906001600160f81b031916908160001a905350600f60fb1b816001815181106122ca576122ca612be7565b60200101906001600160f81b031916908160001a90535060006122ee846002613044565b6122f9906001612df7565b90505b6001811115612371576f181899199a1a9b1b9c1cb0b131b232b360811b85600f166010811061232d5761232d612be7565b1a60f81b82828151811061234357612343612be7565b60200101906001600160f81b031916908160001a90535060049490941c9361236a8161305b565b90506122fc565b5083156123c05760405162461bcd60e51b815260206004820181905260248201527f537472696e67733a20686578206c656e67746820696e73756666696369656e7460448201526064016107a4565b9392505050565b6123d0816120a0565b6040516001600160a01b038216907fbc7cd75a20ee27fd9adebab32041f755214dbc6bffa90cc0225b39da2e5c2d3b90600090a250565b60606123c083836040518060600160405280602781526020016130cf602791396060600080856001600160a01b0316856040516124449190613072565b600060405180830381855af49150503d806000811461247f576040519150601f19603f3d011682016040523d82523d6000602084013e612484565b606091505b50915091506124958683838761249f565b9695505050505050565b6060831561250e578251600003612507576001600160a01b0385163b6125075760405162461bcd60e51b815260206004820152601d60248201527f416464726573733a2063616c6c20746f206e6f6e2d636f6e747261637400000060448201526064016107a4565b5081612518565b6125188383612520565b949350505050565b8151156125305781518083602001fd5b8060405162461bcd60e51b81526004016107a49190613031565b828054828255906000526020600020908101928215612585579160200282015b8281111561258557825182559160200191906001019061256a565b50612591929150612595565b5090565b5b808211156125915760008155600101612596565b6000602082840312156125bc57600080fd5b81356001600160e01b0319811681146123c057600080fd5b634e487b7160e01b600052604160045260246000fd5b604051601f8201601f1916810167ffffffffffffffff81118282101715612613576126136125d4565b604052919050565b60008067ffffffffffffffff841115612636576126366125d4565b50601f8301601f191660200161264b816125ea565b91505082815283838301111561266057600080fd5b828260208301376000602084830101529392505050565b600080600080600060a0868803121561268f57600080fd5b853594506020860135935060408601359250606086013567ffffffffffffffff8111156126bb57600080fd5b8601601f810188136126cc57600080fd5b6126db8882356020840161261b565b925050608086013567ffffffffffffffff8111156126f857600080fd5b8601601f8101881361270957600080fd5b803567ffffffffffffffff811115612723576127236125d4565b8060051b612733602082016125ea565b9182526020818401810192908101908b84111561274f57600080fd5b6020850194505b8385101561277557843580835260209586019590935090910190612756565b80955050505050509295509295909350565b60006020828403121561279957600080fd5b5035919050565b60005b838110156127bb5781810151838201526020016127a3565b50506000910152565b600081518084526127dc8160208601602086016127a0565b601f01601f19169290920160200192915050565b89815288602082015260018060a01b03881660408201528660608201528560808201528460a08201528360c082015261012060e082015260006128376101208301856127c4565b9050826101008301529a9950505050505050505050565b80356001600160a01b038116811461286557600080fd5b919050565b6000806040838503121561287d57600080fd5b8235915061288d6020840161284e565b90509250929050565b6000602082840312156128a857600080fd5b6123c08261284e565b600080604083850312156128c457600080fd5b50508035926020909101359150565b602080825282518282018190526000918401906040840190835b8181101561290b5783518352602093840193909201916001016128ed565b509095945050505050565b6000806040838503121561292957600080fd5b6129328361284e565b9150602083013567ffffffffffffffff81111561294e57600080fd5b8301601f8101851361295f57600080fd5b61296e8582356020840161261b565b9150509250929050565b84815283602082015282604082015260806060820152600061249560808301846127c4565b6000602082016020835280845180835260408501915060408160051b86010192506020860160005b82811015612a2157603f1987860301845281518051865260208101516020870152604081015160408701526060810151905060806060870152612a0b60808701826127c4565b95505060209384019391909101906001016129c5565b50929695505050505050565b60008083601f840112612a3f57600080fd5b50813567ffffffffffffffff811115612a5757600080fd5b602083019150836020828501011115612a6f57600080fd5b9250929050565b600080600060408486031215612a8b57600080fd5b83359250602084013567ffffffffffffffff811115612aa957600080fd5b612ab586828701612a2d565b9497909650939450505050565b60008060008060608587031215612ad857600080fd5b8435935060208501359250604085013567ffffffffffffffff811115612afd57600080fd5b612b0987828801612a2d565b95989497509550505050565b600181811c90821680612b2957607f821691505b602082108103612b4957634e487b7160e01b600052602260045260246000fd5b50919050565b6020808252602c908201527f46756e6374696f6e206d7573742062652063616c6c6564207468726f7567682060408201526b19195b1959d85d1958d85b1b60a21b606082015260800190565b6020808252602c908201527f46756e6374696f6e206d7573742062652063616c6c6564207468726f7567682060408201526b6163746976652070726f787960a01b606082015260800190565b634e487b7160e01b600052603260045260246000fd5b60208082526025908201527f446f63756d656e7452656769737472793a20496e76616c696420646f63756d656040820152641b9d08125160da1b606082015260800190565b60208082526029908201527f446f63756d656e7452656769737472793a20446f63756d656e7420646f6573206040820152681b9bdd08195e1a5cdd60ba1b606082015260800190565b60208082526028908201527f446f63756d656e7452656769737472793a20446f63756d656e74206973206e6f604082015267742061637469766560c01b606082015260800190565b601f82111561097e57806000526020600020601f840160051c81016020851015612cfa5750805b601f840160051c820191505b81811015612d1a5760008155600101612d06565b5050505050565b67ffffffffffffffff831115612d3957612d396125d4565b612d4d83612d478354612b15565b83612cd3565b6000601f841160018114612d815760008515612d695750838201355b600019600387901b1c1916600186901b178355612d1a565b600083815260209020601f19861690835b82811015612db25786850135825560209485019460019092019101612d92565b5086821015612dcf5760001960f88860031b161c19848701351681555b505060018560011b0183555050505050565b634e487b7160e01b600052601160045260246000fd5b8082018082111561074b5761074b612de1565b600060208284031215612e1c57600080fd5b5051919050565b60208082526030908201527f446f63756d656e7452656769737472793a205369676e6572206d75737420686160408201526f1d9948185b881858dd1a5d994811125160821b606082015260800190565b600080600060608486031215612e8857600080fd5b83516020850151604086015191945092508015158114612ea757600080fd5b809150509250925092565b815167ffffffffffffffff811115612ecc57612ecc6125d4565b612ee081612eda8454612b15565b84612cd3565b6020601f821160018114612f145760008315612efc5750848201515b600019600385901b1c1916600184901b178455612d1a565b600084815260208120601f198516915b82811015612f445787850151825560209485019460019092019101612f24565b5084821015612f625786840151600019600387901b60f8161c191681555b50505050600190811b01905550565b6020808252602b908201527f496e697469616c697a61626c653a20636f6e7472616374206973206e6f74206960408201526a6e697469616c697a696e6760a81b606082015260800190565b7f416363657373436f6e74726f6c3a206163636f756e7420000000000000000000815260008351612ff48160178501602088016127a0565b7001034b99036b4b9b9b4b733903937b6329607d1b60179184019182015283516130258160288401602088016127a0565b01602801949350505050565b6020815260006123c060208301846127c4565b808202811582820484141761074b5761074b612de1565b60008161306a5761306a612de1565b506000190190565b600082516130848184602087016127a0565b919091019291505056fe360894a13ba1a3210667c828492db98dca3e2076cc3735a920a3ca505d382bbcdb6d55a48c634fdfe68da24c01559762c293198f8322e1fed7ca8976fc4ed260416464726573733a206c6f772d6c6576656c2064656c65676174652063616c6c206661696c6564a49807205ce4d355092ef5a8a18f56e8913cf4a201fbe287825b095693c21775a2646970667358221220e630370b19f3fa214dd676be107d377c66aecda88665944c14d7bab6e2ca2bb464736f6c634300081c0033",
  "linkReferences": {},
  "deployedLinkReferences": {}
}