{
  "_format": "hh-sol-artifact-1",
  "contractName": "DIDRegistry",
  "sourceName": "contracts/core/DIDRegistry.sol",
  "abi": [
    {
      "inputs": [],
      "stateMutability": "nonpayable",
      "type": "constructor"
    },
    {
      "anonymous": false,
      "inputs": [
        {
          "indexed": false,
          "internalType": "address",
          "name": "previousAdmin",
          "type": "address"
        },
        {
          "indexed": false,
          "internalType": "address",
          "name": "newAdmin",
          "type": "address"
        }
      ],
      "name": "AdminChanged",
      "type": "event"
    },
    {
      "anonymous": false,
      "inputs": [
        {
          "indexed": true,
          "internalType": "address",
          "name": "beacon",
          "type": "address"
        }
      ],
      "name": "BeaconUpgraded",
      "type": "event"
    },
    {
      "anonymous": false,
      "inputs": [
        {
          "indexed": true,
          "internalType": "bytes32",
          "name": "didId",
          "type": "bytes32"
        },
        {
          "indexed": true,
          "internalType": "address",
          "name": "owner",
          "type": "address"
        }
      ],
      "name": "DIDCreated",
      "type": "event"
    },
    {
      "anonymous": false,
      "inputs": [
        {
          "indexed": true,
          "internalType": "bytes32",
          "name": "didId",
          "type": "bytes32"
        }
      ],
      "name": "DIDUpdated",
      "type": "event"
    },
    {
      "anonymous": false,
      "inputs": [
        {
          "indexed": false,
          "internalType": "uint8",
          "name": "version",
          "type": "uint8"
        }
      ],
      "name": "Initialized",
      "type": "event"
    },
    {
      "anonymous": false,
      "inputs": [
        {
          "indexed": false,
          "internalType": "address",
          "name": "account",
          "type": "address"
        }
      ],
      "name": "Paused",
      "type": "event"
    },
    {
      "anonymous": false,
      "inputs": [
        {
          "indexed": true,
          "internalType": "bytes32",
          "name": "role",
          "type": "bytes32"
        },
        {
          "indexed": true,
          "internalType": "bytes32",
          "name": "previousAdminRole",
          "type": "bytes32"
        },
        {
          "indexed": true,
          "internalType": "bytes32",
          "name": "newAdminRole",
          "type": "bytes32"
        }
      ],
      "name": "RoleAdminChanged",
      "type": "event"
    },
    {
      "anonymous": false,
      "inputs": [
        {
          "indexed": true,
          "internalType": "bytes32",
          "name": "role",
          "type": "bytes32"
        },
        {
          "indexed": true,
          "internalType": "address",
          "name": "account",
          "type": "address"
        },
        {
          "indexed": true,
          "internalType": "address",
          "name": "sender",
          "type": "address"
        }
      ],
      "name": "RoleGranted",
      "type": "event"
    },
    {
      "anonymous": false,
      "inputs": [
        {
          "indexed": true,
          "internalType": "bytes32",
          "name": "role",
          "type": "bytes32"
        },
        {
          "indexed": true,
          "internalType": "address",
          "name": "account",
          "type": "address"
        },
        {
          "indexed": true,
          "internalType": "address",
          "name": "sender",
          "type": "address"
        }
      ],
      "name": "RoleRevoked",
      "type": "event"
    },
    {
      "anonymous": false,
      "inputs": [
        {
          "indexed": false,
          "internalType": "address",
          "name": "account",
          "type": "address"
        }
      ],
      "name": "Unpaused",
      "type": "event"
    },
    {
      "anonymous": false,
      "inputs": [
        {
          "indexed": true,
          "internalType": "address",
          "name": "implementation",
          "type": "address"
        }
      ],
      "name": "Upgraded",
      "type": "event"
    },
    {
      "anonymous": false,
      "inputs": [
        {
          "indexed": true,
          "internalType": "bytes32",
          "name": "didId",
          "type": "bytes32"
        },
        {
          "indexed": true,
          "internalType": "address",
          "name": "verifier",
          "type": "address"
        }
      ],
      "name": "VerificationAdded",
      "type": "event"
    },
    {
      "anonymous": false,
      "inputs": [
        {
          "indexed": true,
          "internalType": "bytes32",
          "name": "didId",
          "type": "bytes32"
        },
        {
          "indexed": true,
          "internalType": "address",
          "name": "verifier",
          "type": "address"
        }
      ],
      "name": "VerificationRevoked",
      "type": "event"
    },
    {
      "inputs": [],
      "name": "ACCOUNT_VERIFICATION",
      "outputs": [
        {
          "internalType": "uint256",
          "name": "",
          "type": "uint256"
        }
      ],
      "stateMutability": "view",
      "type": "function"
    },
    {
      "inputs": [],
      "name": "ADMIN_ROLE",
      "outputs": [
        {
          "internalType": "bytes32",
          "name": "",
          "type": "bytes32"
        }
      ],
      "stateMutability": "view",
      "type": "function"
    },
    {
      "inputs": [],
      "name": "DEFAULT_ADMIN_ROLE",
      "outputs": [
        {
          "internalType": "bytes32",
          "name": "",
          "type": "bytes32"
        }
      ],
      "stateMutability": "view",
      "type": "function"
    },
    {
      "inputs": [],
      "name": "ID_VERIFICATION",
      "outputs": [
        {
          "internalType": "uint256",
          "name": "",
          "type": "uint256"
        }
      ],
      "stateMutability": "view",
      "type": "function"
    },
    {
      "inputs": [],
      "name": "KYC_VERIFICATION",
      "outputs": [
        {
          "internalType": "uint256",
          "name": "",
          "type": "uint256"
        }
      ],
      "stateMutability": "view",
      "type": "function"
    },
    {
      "inputs": [],
      "name": "NO_VERIFICATION",
      "outputs": [
        {
          "internalType": "uint256",
          "name": "",
          "type": "uint256"
        }
      ],
      "stateMutability": "view",
      "type": "function"
    },
    {
      "inputs": [],
      "name": "VERIFIER_ROLE",
      "outputs": [
        {
          "internalType": "bytes32",
          "name": "",
          "type": "bytes32"
        }
      ],
      "stateMutability": "view",
      "type": "function"
    },
    {
      "inputs": [
        {
          "internalType": "bytes32",
          "name": "didId",
          "type": "bytes32"
        },
        {
          "internalType": "uint256",
          "name": "level",
          "type": "uint256"
        },
        {
          "internalType": "uint256",
          "name": "expiration",
          "type": "uint256"
        },
        {
          "internalType": "bytes",
          "name": "metadata",
          "type": "bytes"
        }
      ],
      "name": "addVerification",
      "outputs": [],
      "stateMutability": "nonpayable",
      "type": "function"
    },
    {
      "inputs": [
        {
          "internalType": "bytes32[]",
          "name": "identifiers",
          "type": "bytes32[]"
        }
      ],
      "name": "createDID",
      "outputs": [
        {
          "internalType": "bytes32",
          "name": "",
          "type": "bytes32"
        }
      ],
      "stateMutability": "nonpayable",
      "type": "function"
    },
    {
      "inputs": [
        {
          "internalType": "bytes32",
          "name": "didId",
          "type": "bytes32"
        }
      ],
      "name": "deactivateDID",
      "outputs": [],
      "stateMutability": "nonpayable",
      "type": "function"
    },
    {
      "inputs": [
        {
          "internalType": "address",
          "name": "owner",
          "type": "address"
        }
      ],
      "name": "getDIDByAddress",
      "outputs": [
        {
          "internalType": "bytes32",
          "name": "",
          "type": "bytes32"
        }
      ],
      "stateMutability": "view",
      "type": "function"
    },
    {
      "inputs": [
        {
          "internalType": "bytes32",
          "name": "didId",
          "type": "bytes32"
        }
      ],
      "name": "getDIDIdentifiers",
      "outputs": [
        {
          "internalType": "bytes32[]",
          "name": "",
          "type": "bytes32[]"
        }
      ],
      "stateMutability": "view",
      "type": "function"
    },
    {
      "inputs": [
        {
          "internalType": "bytes32",
          "name": "didId",
          "type": "bytes32"
        }
      ],
      "name": "getDIDMetadata",
      "outputs": [
        {
          "internalType": "uint256",
          "name": "created",
          "type": "uint256"
        },
        {
          "internalType": "uint256",
          "name": "updated",
          "type": "uint256"
        },
        {
          "internalType": "bool",
          "name": "active",
          "type": "bool"
        }
      ],
      "stateMutability": "view",
      "type": "function"
    },
    {
      "inputs": [
        {
          "internalType": "bytes32",
          "name": "didId",
          "type": "bytes32"
        }
      ],
      "name": "getDIDOwner",
      "outputs": [
        {
          "internalType": "address",
          "name": "",
          "type": "address"
        }
      ],
      "stateMutability": "view",
      "type": "function"
    },
    {
      "inputs": [
        {
          "internalType": "bytes32",
          "name": "role",
          "type": "bytes32"
        }
      ],
      "name": "getRoleAdmin",
      "outputs": [
        {
          "internalType": "bytes32",
          "name": "",
          "type": "bytes32"
        }
      ],
      "stateMutability": "view",
      "type": "function"
    },
    {
      "inputs": [
        {
          "internalType": "bytes32",
          "name": "role",
          "type": "bytes32"
        }
      ],
      "name": "getRoleMemberArray",
      "outputs": [
        {
          "internalType": "address[]",
          "name": "",
          "type": "address[]"
        }
      ],
      "stateMutability": "view",
      "type": "function"
    },
    {
      "inputs": [
        {
          "internalType": "bytes32",
          "name": "didId",
          "type": "bytes32"
        },
        {
          "internalType": "address",
          "name": "verifier",
          "type": "address"
        }
      ],
      "name": "getVerification",
      "outputs": [
        {
          "components": [
            {
              "internalType": "address",
              "name": "verifier",
              "type": "address"
            },
            {
              "internalType": "uint256",
              "name": "level",
              "type": "uint256"
            },
            {
              "internalType": "uint256",
              "name": "timestamp",
              "type": "uint256"
            },
            {
              "internalType": "uint256",
              "name": "expiration",
              "type": "uint256"
            },
            {
              "internalType": "bytes32",
              "name": "status",
              "type": "bytes32"
            },
            {
              "internalType": "bytes",
              "name": "metadata",
              "type": "bytes"
            }
          ],
          "internalType": "struct IDID.Verification",
          "name": "",
          "type": "tuple"
        }
      ],
      "stateMutability": "view",
      "type": "function"
    },
    {
      "inputs": [
        {
          "internalType": "bytes32",
          "name": "role",
          "type": "bytes32"
        },
        {
          "internalType": "address",
          "name": "account",
          "type": "address"
        }
      ],
      "name": "grantRole",
      "outputs": [],
      "stateMutability": "nonpayable",
      "type": "function"
    },
    {
      "inputs": [
        {
          "internalType": "bytes32",
          "name": "role",
          "type": "bytes32"
        },
        {
          "internalType": "address",
          "name": "account",
          "type": "address"
        }
      ],
      "name": "hasRole",
      "outputs": [
        {
          "internalType": "bool",
          "name": "",
          "type": "bool"
        }
      ],
      "stateMutability": "view",
      "type": "function"
    },
    {
      "inputs": [],
      "name": "initialize",
      "outputs": [],
      "stateMutability": "nonpayable",
      "type": "function"
    },
    {
      "inputs": [
        {
          "internalType": "bytes32",
          "name": "didId",
          "type": "bytes32"
        }
      ],
      "name": "isVerified",
      "outputs": [
        {
          "internalType": "bool",
          "name": "",
          "type": "bool"
        }
      ],
      "stateMutability": "view",
      "type": "function"
    },
    {
      "inputs": [],
      "name": "pause",
      "outputs": [],
      "stateMutability": "nonpayable",
      "type": "function"
    },
    {
      "inputs": [],
      "name": "paused",
      "outputs": [
        {
          "internalType": "bool",
          "name": "",
          "type": "bool"
        }
      ],
      "stateMutability": "view",
      "type": "function"
    },
    {
      "inputs": [],
      "name": "proxiableUUID",
      "outputs": [
        {
          "internalType": "bytes32",
          "name": "",
          "type": "bytes32"
        }
      ],
      "stateMutability": "view",
      "type": "function"
    },
    {
      "inputs": [
        {
          "internalType": "bytes32",
          "name": "role",
          "type": "bytes32"
        },
        {
          "internalType": "address",
          "name": "account",
          "type": "address"
        }
      ],
      "name": "renounceRole",
      "outputs": [],
      "stateMutability": "nonpayable",
      "type": "function"
    },
    {
      "inputs": [
        {
          "internalType": "bytes32",
          "name": "role",
          "type": "bytes32"
        },
        {
          "internalType": "address",
          "name": "account",
          "type": "address"
        }
      ],
      "name": "revokeRole",
      "outputs": [],
      "stateMutability": "nonpayable",
      "type": "function"
    },
    {
      "inputs": [
        {
          "internalType": "bytes32",
          "name": "didId",
          "type": "bytes32"
        }
      ],
      "name": "revokeVerification",
      "outputs": [],
      "stateMutability": "nonpayable",
      "type": "function"
    },
    {
      "inputs": [
        {
          "internalType": "bytes4",
          "name": "interfaceId",
          "type": "bytes4"
        }
      ],
      "name": "supportsInterface",
      "outputs": [
        {
          "internalType": "bool",
          "name": "",
          "type": "bool"
        }
      ],
      "stateMutability": "view",
      "type": "function"
    },
    {
      "inputs": [],
      "name": "unpause",
      "outputs": [],
      "stateMutability": "nonpayable",
      "type": "function"
    },
    {
      "inputs": [
        {
          "internalType": "bytes32",
          "name": "didId",
          "type": "bytes32"
        },
        {
          "internalType": "bytes32[]",
          "name": "identifiers",
          "type": "bytes32[]"
        }
      ],
      "name": "updateDID",
      "outputs": [],
      "stateMutability": "nonpayable",
      "type": "function"
    },
    {
      "inputs": [
        {
          "internalType": "address",
          "name": "newImplementation",
          "type": "address"
        }
      ],
      "name": "upgradeTo",
      "outputs": [],
      "stateMutability": "nonpayable",
      "type": "function"
    },
    {
      "inputs": [
        {
          "internalType": "address",
          "name": "newImplementation",
          "type": "address"
        },
        {
          "internalType": "bytes",
          "name": "data",
          "type": "bytes"
        }
      ],
      "name": "upgradeToAndCall",
      "outputs": [],
      "stateMutability": "payable",
      "type": "function"
    }
  ],
  "bytecode": "0x60a060405230608052348015601357600080fd5b50608051612b3961004b600039600081816109e301528181610a2301528181610b4801528181610b880152610c170152612b396000f3fe6080604052600436106101e35760003560e01c806375b238fc11610102578063a217fddf11610095578063d6c0f68e11610064578063d6c0f68e146105c1578063d849c8b0146105ee578063e7705db61461060e578063f9864d581461063057600080fd5b8063a217fddf1461056c578063c181b27314610581578063c9df44c61461056c578063d547741f146105a157600080fd5b80638456cb59116100d15780638456cb59146104e057806391d14854146104f557806395f9250d146105155780639dd08b7f1461054c57600080fd5b806375b238fc146104335780637a291ea8146104555780637e3e314f146104b65780638129fc1c146104cb57600080fd5b80633f4ba83a1161017a5780635777b2fc116101495780635777b2fc1461037c5780635c975abb146103a95780636c2ef524146103c157806370eba1241461041357600080fd5b80633f4ba83a146103125780634cef1212146103275780634f1ef2861461035457806352d1902d1461036757600080fd5b80632e668a22116101b65780632e668a22146102925780632f2ff15d146102b257806336568abe146102d25780633659cfe6146102f257600080fd5b806301ffc9a7146101e857806317a1b7861461021d578063248a9ca31461024057806329b1a51614610270575b600080fd5b3480156101f457600080fd5b50610208610203366004612298565b610645565b60405190151581526020015b60405180910390f35b34801561022957600080fd5b50610232600381565b604051908152602001610214565b34801561024c57600080fd5b5061023261025b3660046122c2565b60009081526065602052604090206001015490565b34801561027c57600080fd5b5061029061028b366004612327565b61067c565b005b34801561029e57600080fd5b506102906102ad3660046122c2565b6107fd565b3480156102be57600080fd5b506102906102cd36600461238f565b61092e565b3480156102de57600080fd5b506102906102ed36600461238f565b61095f565b3480156102fe57600080fd5b5061029061030d3660046123bb565b6109d9565b34801561031e57600080fd5b50610290610ab8565b34801561033357600080fd5b506103476103423660046122c2565b610ad8565b60405161021491906123d6565b61029061036236600461242f565b610b3e565b34801561037357600080fd5b50610232610c0a565b34801561038857600080fd5b5061039c61039736600461238f565b610cbd565b6040516102149190612549565b3480156103b557600080fd5b5060975460ff16610208565b3480156103cd57600080fd5b506103fb6103dc3660046122c2565b600090815261015f60205260409020600101546001600160a01b031690565b6040516001600160a01b039091168152602001610214565b34801561041f57600080fd5b5061029061042e3660046122c2565b610dff565b34801561043f57600080fd5b50610232600080516020612ac483398151915281565b34801561046157600080fd5b506104996104703660046122c2565b600090815261015f6020526040902060028101546003820154600490920154909260ff90911690565b604080519384526020840192909252151590820152606001610214565b3480156104c257600080fd5b50610232600181565b3480156104d757600080fd5b50610290610f7b565b3480156104ec57600080fd5b506102906110c6565b34801561050157600080fd5b5061020861051036600461238f565b6110e6565b34801561052157600080fd5b506102326105303660046123bb565b6001600160a01b03166000908152610161602052604090205490565b34801561055857600080fd5b5061023261056736600461259e565b611111565b34801561057857600080fd5b50610232600081565b34801561058d57600080fd5b5061020861059c3660046122c2565b6112f2565b3480156105ad57600080fd5b506102906105bc36600461238f565b6112fd565b3480156105cd57600080fd5b506105e16105dc3660046122c2565b611328565b60405161021491906125e0565b3480156105fa57600080fd5b50610290610609366004612621565b6113a1565b34801561061a57600080fd5b50610232600080516020612ae483398151915281565b34801561063c57600080fd5b50610232600281565b60006001600160e01b03198216637965db0b60e01b148061067657506301ffc9a760e01b6001600160e01b03198316145b92915050565b6106846115ca565b6106a983600090815261015f60205260409020600101546001600160a01b0316331490565b6106fa5760405162461bcd60e51b815260206004820152601a60248201527f44494452656769737472793a204e6f7420444944206f776e657200000000000060448201526064015b60405180910390fd5b600083815261015f602052604090206004015460ff1661075c5760405162461bcd60e51b815260206004820152601b60248201527f44494452656769737472793a20444944206e6f7420616374697665000000000060448201526064016106f1565b600083815261015f602052604081209061077a906005830190612266565b60005b828110156107c5578160050184848381811061079b5761079b6126b0565b8354600180820186556000958652602095869020929095029390930135920191909155500161077d565b5042600382015560405184907fbfa857c381bf070d639cda6e7ae8c909197f77a66514672e641f32273dba86be90600090a250505050565b6108056115ca565b61082a81600090815261015f60205260409020600101546001600160a01b0316331490565b6108765760405162461bcd60e51b815260206004820152601a60248201527f44494452656769737472793a204e6f7420444944206f776e657200000000000060448201526064016106f1565b600081815261015f602052604090206004015460ff166108e25760405162461bcd60e51b815260206004820152602160248201527f44494452656769737472793a2044494420616c726561647920696e61637469766044820152606560f81b60648201526084016106f1565b600081815261015f602052604080822060048101805460ff19169055426003909101555182917fbfa857c381bf070d639cda6e7ae8c909197f77a66514672e641f32273dba86be91a250565b6109388282611612565b600080516020612ae4833981519152820361095b5761095961016282611637565b505b5050565b6001600160a01b03811633146109cf5760405162461bcd60e51b815260206004820152602f60248201527f416363657373436f6e74726f6c3a2063616e206f6e6c792072656e6f756e636560448201526e103937b632b9903337b91039b2b63360891b60648201526084016106f1565b61095b8282611653565b6001600160a01b037f0000000000000000000000000000000000000000000000000000000000000000163003610a215760405162461bcd60e51b81526004016106f1906126c6565b7f00000000000000000000000000000000000000000000000000000000000000006001600160a01b0316610a6a600080516020612a7d833981519152546001600160a01b031690565b6001600160a01b031614610a905760405162461bcd60e51b81526004016106f190612712565b610a99816116ba565b60408051600080825260208201909252610ab5918391906116c5565b50565b600080516020612ac4833981519152610ad081611835565b610ab561183f565b600081815261015f6020908152604091829020600501805483518184028101840190945280845260609392830182828015610b3257602002820191906000526020600020905b815481526020019060010190808311610b1e575b50505050509050919050565b6001600160a01b037f0000000000000000000000000000000000000000000000000000000000000000163003610b865760405162461bcd60e51b81526004016106f1906126c6565b7f00000000000000000000000000000000000000000000000000000000000000006001600160a01b0316610bcf600080516020612a7d833981519152546001600160a01b031690565b6001600160a01b031614610bf55760405162461bcd60e51b81526004016106f190612712565b610bfe826116ba565b61095b828260016116c5565b6000306001600160a01b037f00000000000000000000000000000000000000000000000000000000000000001614610caa5760405162461bcd60e51b815260206004820152603860248201527f555550535570677261646561626c653a206d757374206e6f742062652063616c60448201527f6c6564207468726f7567682064656c656761746563616c6c000000000000000060648201526084016106f1565b50600080516020612a7d83398151915290565b610d026040518060c0016040528060006001600160a01b0316815260200160008152602001600081526020016000815260200160008019168152602001606081525090565b6000838152610160602090815260408083206001600160a01b03808716855290835292819020815160c08101835281549094168452600181015492840192909252600282015490830152600381015460608301526004810154608083015260058101805460a084019190610d759061275e565b80601f0160208091040260200160405190810160405280929190818152602001828054610da19061275e565b8015610dee5780601f10610dc357610100808354040283529160200191610dee565b820191906000526020600020905b815481529060010190602001808311610dd157829003601f168201915b505050505081525050905092915050565b610e076115ca565b610e1f600080516020612ae4833981519152336110e6565b80610e3d5750610e3d600080516020612ac4833981519152336110e6565b610e895760405162461bcd60e51b815260206004820152601b60248201527f44494452656769737472793a204e6f7420617574686f72697a6564000000000060448201526064016106f1565b600081815261016060209081526040808320338085529252909120546001600160a01b031614610f075760405162461bcd60e51b815260206004820152602360248201527f44494452656769737472793a204e6f20766572696669636174696f6e2065786960448201526273747360e81b60648201526084016106f1565b6000818152610160602090815260408083203380855292528083207ff762965bdb8dff81b8c1397e6074e78216cd3eefe37835af6bd83d5348ea57f360048201554260039091015551909183917fd867480a2f92ca16a193510b3d5a985a1907a2774d7f1a646d723c4a4e3d5b599190a350565b600054610100900460ff1615808015610f9b5750600054600160ff909116105b80610fb55750303b158015610fb5575060005460ff166001145b6110185760405162461bcd60e51b815260206004820152602e60248201527f496e697469616c697a61626c653a20636f6e747261637420697320616c72656160448201526d191e481a5b9a5d1a585b1a5e995960921b60648201526084016106f1565b6000805460ff19166001179055801561103b576000805461ff0019166101001790555b611043611891565b61104b6118b8565b611053611891565b61105b6118e7565b611066600033611916565b61107e600080516020612ae483398151915233611916565b8015610ab5576000805461ff0019169055604051600181527f7f26b83ff96e1f2b6a682f133852f6798a09c465da95921460cefb38474024989060200160405180910390a150565b600080516020612ac48339815191526110de81611835565b610ab561199c565b60009182526065602090815260408084206001600160a01b0393909316845291905290205460ff1690565b600061111b6115ca565b6111236119d9565b8161117c5760405162461bcd60e51b8152602060048201526024808201527f44494452656769737472793a204e6f206964656e746966696572732070726f766044820152631a59195960e21b60648201526084016106f1565b3360009081526101616020526040902054156111e95760405162461bcd60e51b815260206004820152602660248201527f44494452656769737472793a204164647265737320616c72656164792068617360448201526508184811125160d21b60648201526084016106f1565b6000334285856040516020016112029493929190612798565b60408051601f198184030181529181528151602092830120600081815261015f909352908220818155600180820180546001600160a01b031916331790554260028301819055600383015560048201805460ff19169091179055909250905b848110156112a9578160050186868381811061127f5761127f6126b0565b83546001808201865560009586526020958690209290950293909301359201919091555001611261565b5033600081815261016160205260408082208590555184917f396e22dfbd808e0a1b52fbe4eee5adc5949a32f4a21825dd771e6bd8576802f191a3509050610676600161012d55565b600061067682611a3c565b6113078282611b09565b600080516020612ae4833981519152820361095b5761095961016282611b2e565b6060600080516020612ae483398151915282146113995760405162461bcd60e51b815260206004820152602960248201527f44494452656769737472793a204f6e6c7920766572696669657220726f6c65206044820152681cdd5c1c1bdc9d195960ba1b60648201526084016106f1565b610676611b43565b6113a96115ca565b6113c1600080516020612ae4833981519152336110e6565b61140d5760405162461bcd60e51b815260206004820152601b60248201527f44494452656769737472793a204e6f742061207665726966696572000000000060448201526064016106f1565b600085815261015f602052604090206004015460ff1661146f5760405162461bcd60e51b815260206004820152601b60248201527f44494452656769737472793a20444944206e6f7420616374697665000000000060448201526064016106f1565b60038411156114d05760405162461bcd60e51b815260206004820152602760248201527f44494452656769737472793a20496e76616c696420766572696669636174696f6044820152661b881b195d995b60ca1b60648201526084016106f1565b42831161151f5760405162461bcd60e51b815260206004820152601f60248201527f44494452656769737472793a20496e76616c69642065787069726174696f6e0060448201526064016106f1565b60008581526101606020908152604080832033808552925290912080546001600160a01b031916909117815560018101859055426002820155600381018490557fdb6d55a48c634fdfe68da24c01559762c293198f8322e1fed7ca8976fc4ed260600482015560058101611594838583612834565b50604051339087907fb3989975476a98f9a657ad787183b8662919b8ddbb898268da7ebc98d10664be90600090a3505050505050565b60975460ff16156116105760405162461bcd60e51b815260206004820152601060248201526f14185d5cd8589b194e881c185d5cd95960821b60448201526064016106f1565b565b60008281526065602052604090206001015461162d81611835565b6109598383611916565b600061164c836001600160a01b038416611beb565b9392505050565b61165d82826110e6565b1561095b5760008281526065602090815260408083206001600160a01b0385168085529252808320805460ff1916905551339285917ff6391f5c32d9c69d2a47ea670b442974b53935d1edc7fd64eb21e047a839171b9190a45050565b600061095b81611835565b7f4910fdfa16fed3260ed0e7147f7cc6da11a60208b5b9406d12a635614ffd91435460ff16156116fd576116f883611c3a565b610959565b826001600160a01b03166352d1902d6040518163ffffffff1660e01b8152600401602060405180830381865afa925050508015611757575060408051601f3d908101601f19168201909252611754918101906128f4565b60015b6117ba5760405162461bcd60e51b815260206004820152602e60248201527f45524331393637557067726164653a206e657720696d706c656d656e7461746960448201526d6f6e206973206e6f74205555505360901b60648201526084016106f1565b600080516020612a7d83398151915281146118295760405162461bcd60e51b815260206004820152602960248201527f45524331393637557067726164653a20756e737570706f727465642070726f786044820152681a58589b195555525160ba1b60648201526084016106f1565b50610959838383611cd6565b610ab58133611d01565b611847611d5a565b6097805460ff191690557f5db9ee0a495bf2e6ff9c91a7834c1ba4fdd244a5e8aa4e537bd38aeae4b073aa335b6040516001600160a01b03909116815260200160405180910390a1565b600054610100900460ff166116105760405162461bcd60e51b81526004016106f19061290d565b600054610100900460ff166118df5760405162461bcd60e51b81526004016106f19061290d565b611610611da3565b600054610100900460ff1661190e5760405162461bcd60e51b81526004016106f19061290d565b611610611dd6565b61192082826110e6565b61095b5760008281526065602090815260408083206001600160a01b03851684529091529020805460ff191660011790556119583390565b6001600160a01b0316816001600160a01b0316837f2f8788117e7eff1d82e926ec794901d17c78024a50270940304540a733656f0d60405160405180910390a45050565b6119a46115ca565b6097805460ff191660011790557f62e78cea01bee320cd4e420270b5ea74000d11b0c9f74754ebdbfc544b05a2586118743390565b600261012d5403611a2c5760405162461bcd60e51b815260206004820152601f60248201527f5265656e7472616e637947756172643a207265656e7472616e742063616c6c0060448201526064016106f1565b600261012d55565b600161012d55565b600080611a47611b43565b905060005b8151811015611aff5760008481526101606020526040812083518290859085908110611a7a57611a7a6126b0565b6020908102919091018101516001600160a01b0390811683529082019290925260400160002080549092501615801590611ab75750428160030154115b8015611ae657507fdb6d55a48c634fdfe68da24c01559762c293198f8322e1fed7ca8976fc4ed2608160040154145b15611af657506001949350505050565b50600101611a4c565b5060009392505050565b600082815260656020526040902060010154611b2481611835565b6109598383611653565b600061164c836001600160a01b038416611dfd565b60606000611b52610162611ef0565b905060008167ffffffffffffffff811115611b6f57611b6f612419565b604051908082528060200260200182016040528015611b98578160200160208202803683370190505b50905060005b82811015611be457611bb261016282611efa565b828281518110611bc457611bc46126b0565b6001600160a01b0390921660209283029190910190910152600101611b9e565b5092915050565b6000818152600183016020526040812054611c3257508154600181810184556000848152602080822090930184905584548482528286019093526040902091909155610676565b506000610676565b6001600160a01b0381163b611ca75760405162461bcd60e51b815260206004820152602d60248201527f455243313936373a206e657720696d706c656d656e746174696f6e206973206e60448201526c1bdd08184818dbdb9d1c9858dd609a1b60648201526084016106f1565b600080516020612a7d83398151915280546001600160a01b0319166001600160a01b0392909216919091179055565b611cdf83611f06565b600082511180611cec5750805b1561095957611cfb8383611f46565b50505050565b611d0b82826110e6565b61095b57611d1881611f6b565b611d23836020611f7d565b604051602001611d34929190612958565b60408051601f198184030181529082905262461bcd60e51b82526106f1916004016129cd565b60975460ff166116105760405162461bcd60e51b815260206004820152601460248201527314185d5cd8589b194e881b9bdd081c185d5cd95960621b60448201526064016106f1565b600054610100900460ff16611dca5760405162461bcd60e51b81526004016106f19061290d565b6097805460ff19169055565b600054610100900460ff16611a345760405162461bcd60e51b81526004016106f19061290d565b60008181526001830160205260408120548015611ee6576000611e216001836129f6565b8554909150600090611e35906001906129f6565b9050818114611e9a576000866000018281548110611e5557611e556126b0565b9060005260206000200154905080876000018481548110611e7857611e786126b0565b6000918252602080832090910192909255918252600188019052604090208390555b8554869080611eab57611eab612a09565b600190038181906000526020600020016000905590558560010160008681526020019081526020016000206000905560019350505050610676565b6000915050610676565b6000610676825490565b600061164c8383612119565b611f0f81611c3a565b6040516001600160a01b038216907fbc7cd75a20ee27fd9adebab32041f755214dbc6bffa90cc0225b39da2e5c2d3b90600090a250565b606061164c8383604051806060016040528060278152602001612a9d60279139612143565b60606106766001600160a01b03831660145b60606000611f8c836002612a1f565b611f97906002612a36565b67ffffffffffffffff811115611faf57611faf612419565b6040519080825280601f01601f191660200182016040528015611fd9576020820181803683370190505b509050600360fc1b81600081518110611ff457611ff46126b0565b60200101906001600160f81b031916908160001a905350600f60fb1b81600181518110612023576120236126b0565b60200101906001600160f81b031916908160001a9053506000612047846002612a1f565b612052906001612a36565b90505b60018111156120ca576f181899199a1a9b1b9c1cb0b131b232b360811b85600f1660108110612086576120866126b0565b1a60f81b82828151811061209c5761209c6126b0565b60200101906001600160f81b031916908160001a90535060049490941c936120c381612a49565b9050612055565b50831561164c5760405162461bcd60e51b815260206004820181905260248201527f537472696e67733a20686578206c656e67746820696e73756666696369656e7460448201526064016106f1565b6000826000018281548110612130576121306126b0565b9060005260206000200154905092915050565b6060600080856001600160a01b0316856040516121609190612a60565b600060405180830381855af49150503d806000811461219b576040519150601f19603f3d011682016040523d82523d6000602084013e6121a0565b606091505b50915091506121b1868383876121bb565b9695505050505050565b6060831561222a578251600003612223576001600160a01b0385163b6122235760405162461bcd60e51b815260206004820152601d60248201527f416464726573733a2063616c6c20746f206e6f6e2d636f6e747261637400000060448201526064016106f1565b5081612234565b612234838361223c565b949350505050565b81511561224c5781518083602001fd5b8060405162461bcd60e51b81526004016106f191906129cd565b5080546000825590600052602060002090810190610ab591905b808211156122945760008155600101612280565b5090565b6000602082840312156122aa57600080fd5b81356001600160e01b03198116811461164c57600080fd5b6000602082840312156122d457600080fd5b5035919050565b60008083601f8401126122ed57600080fd5b50813567ffffffffffffffff81111561230557600080fd5b6020830191508360208260051b850101111561232057600080fd5b9250929050565b60008060006040848603121561233c57600080fd5b83359250602084013567ffffffffffffffff81111561235a57600080fd5b612366868287016122db565b9497909650939450505050565b80356001600160a01b038116811461238a57600080fd5b919050565b600080604083850312156123a257600080fd5b823591506123b260208401612373565b90509250929050565b6000602082840312156123cd57600080fd5b61164c82612373565b602080825282518282018190526000918401906040840190835b8181101561240e5783518352602093840193909201916001016123f0565b509095945050505050565b634e487b7160e01b600052604160045260246000fd5b6000806040838503121561244257600080fd5b61244b83612373565b9150602083013567ffffffffffffffff81111561246757600080fd5b8301601f8101851361247857600080fd5b803567ffffffffffffffff81111561249257612492612419565b604051601f8201601f19908116603f0116810167ffffffffffffffff811182821017156124c1576124c1612419565b6040528181528282016020018710156124d957600080fd5b816020840160208301376000602083830101528093505050509250929050565b60005b838110156125145781810151838201526020016124fc565b50506000910152565b600081518084526125358160208601602086016124f9565b601f01601f19169290920160200192915050565b6020815260018060a01b038251166020820152602082015160408201526040820151606082015260608201516080820152608082015160a0820152600060a083015160c08084015261223460e084018261251d565b600080602083850312156125b157600080fd5b823567ffffffffffffffff8111156125c857600080fd5b6125d4858286016122db565b90969095509350505050565b602080825282518282018190526000918401906040840190835b8181101561240e5783516001600160a01b03168352602093840193909201916001016125fa565b60008060008060006080868803121561263957600080fd5b853594506020860135935060408601359250606086013567ffffffffffffffff81111561266557600080fd5b8601601f8101881361267657600080fd5b803567ffffffffffffffff81111561268d57600080fd5b88602082840101111561269f57600080fd5b959894975092955050506020019190565b634e487b7160e01b600052603260045260246000fd5b6020808252602c908201527f46756e6374696f6e206d7573742062652063616c6c6564207468726f7567682060408201526b19195b1959d85d1958d85b1b60a21b606082015260800190565b6020808252602c908201527f46756e6374696f6e206d7573742062652063616c6c6564207468726f7567682060408201526b6163746976652070726f787960a01b606082015260800190565b600181811c9082168061277257607f821691505b60208210810361279257634e487b7160e01b600052602260045260246000fd5b50919050565b606085901b6bffffffffffffffffffffffff191681526014810184905260006001600160fb1b038311156127cb57600080fd5b8260051b808560348501379190910160340195945050505050565b601f82111561095957806000526020600020601f840160051c8101602085101561280d5750805b601f840160051c820191505b8181101561282d5760008155600101612819565b5050505050565b67ffffffffffffffff83111561284c5761284c612419565b6128608361285a835461275e565b836127e6565b6000601f841160018114612894576000851561287c5750838201355b600019600387901b1c1916600186901b17835561282d565b600083815260209020601f19861690835b828110156128c557868501358255602094850194600190920191016128a5565b50868210156128e25760001960f88860031b161c19848701351681555b505060018560011b0183555050505050565b60006020828403121561290657600080fd5b5051919050565b6020808252602b908201527f496e697469616c697a61626c653a20636f6e7472616374206973206e6f74206960408201526a6e697469616c697a696e6760a81b606082015260800190565b7f416363657373436f6e74726f6c3a206163636f756e74200000000000000000008152600083516129908160178501602088016124f9565b7001034b99036b4b9b9b4b733903937b6329607d1b60179184019182015283516129c18160288401602088016124f9565b01602801949350505050565b60208152600061164c602083018461251d565b634e487b7160e01b600052601160045260246000fd5b81810381811115610676576106766129e0565b634e487b7160e01b600052603160045260246000fd5b8082028115828204841417610676576106766129e0565b80820180821115610676576106766129e0565b600081612a5857612a586129e0565b506000190190565b60008251612a728184602087016124f9565b919091019291505056fe360894a13ba1a3210667c828492db98dca3e2076cc3735a920a3ca505d382bbc416464726573733a206c6f772d6c6576656c2064656c65676174652063616c6c206661696c6564a49807205ce4d355092ef5a8a18f56e8913cf4a201fbe287825b095693c217750ce23c3e399818cfee81a7ab0880f714e53d7672b08df0fa62f2843416e1ea09a264697066735822122023f5d5caee484e2811c219564db7aa4c92fb57f29a8fe89e3a7543fb1c4affde64736f6c634300081c0033",
  "linkReferences": {},
  "deployedLinkReferences": {}
}